:100000006F0040016F00C000000000000000000011
:10001000730020309301C01B17110000130181BE33
:100020009302C01B1303C01B63F8620023A00200ED
:1000300093824200E3EC62FEEF0040146F00000088
:1000400000000000B7120000938202C01383024038
:100050002380A20093821200E3CC62FE678000003E
:10006000B7120000938202C06388050093820202E7
:10007000130E1E00E34CBEFEB382C2002380A2001A
:10008000B3020000B3020000330E000067800000DE
:10009000130101FC232E1102232C810213040104FD
:1000A000232CC4FC232AD4FC2328E4FC2326F4FCC0
:1000B00093070500A30FF4FC93870500230FF4FCBE
:1000C0008347F4FD13850700EFF0DFF7832784FDF6
:1000D0002326F4FE832744FD2324F4FE6F008003CF
:1000E0008347E4FD0326C4FE832544FD13850700F2
:1000F000EFF01FF78347E4FD0326C4FE8325C4FC0D
:1001000013850700EFF0DFF58327C4FE9387170000
:100110002326F4FE0327C4FE832704FDE3D2E7FC75
:100120006F0080038347E4FD032684FD832584FE5E
:1001300013850700EFF0DFF28347E4FD032604FD9B
:10014000832584FE13850700EFF09FF1832784FE4B
:10015000938717002324F4FE032784FE8327C4FC1F
:10016000E3D2E7FC13000000130000008320C1036A
:10017000032481031301010467800000130101FFC0
:100180002326110023248100130401019307D001C9
:100190001307700193068000130610009305700783
:1001A00013058008EFF0DFEE130000008320C1008C
:0C01B0000324810013010101678000009E
:00000001FF
