:100000006F0040016F00C000000000000000000011
:10001000730020309301C00817110000130181BE46
:100020009302C0081303C00863F8620023A0020013
:1000300093824200E3EC62FEEF00C0036F00000019
:1000400000000000B7120000938202C06388050020
:1000500093820202130E1E00E34CBEFEB382C20066
:100060002380A200B3020000B3020000330E0000A0
:1000700067800000030580089305F0001306F00078
:08008000EFF05FFC6F000000CF
:010088007700
:00000001FF
