:100000009300005013010060930100701302b007c9
:100010009302500a1303a00d930310061304c002a9
:100020009304c0001305300a9305c001130640086d
:100030009306f00023a0400023a2500023a46000f8
:1000400023a6700023a88000232091002322a10072
:100050002324b1002326c1002328d100130c8009da
:10006000130750006382e70413f81700b308000079
:10007000b388f800b388f800b388f800b388f800b4
:1000800033891800b3892800034a090083ca09008c
:10009000630008026f008002b38b380023a06b015d
:1000a000938717006ff01ffc6f0000000000000036
:1000b000334b5a0167000c0000000000337b5a01eb
:1000c00067000c00000000000000000000000000bd
:00000001FF